S01700004763634170706C69636174696F6E372E7372656355
S11300000C9468000C9498040C94650B0C943A0AB4
S11300100C9485000C94FA060C9485000C9441050C
S11300200C9485000C9488050C9485000C94E906C6
S11300300C9485000C947C060C94FE070C948500AB
S11300400C9485000C9485000C9485000C94850018
S11300500C9485000C94CE070C9485000C948500B8
S11300600C9485000C948500E66F407336073E03BC
S113007003556D780A76657760327A435F01216CA7
S11300806E7C06373073701839416F4060762F3EAE
S113009003175839780C1C607760303B071F014305
S11300A04C2C7C06162B3B70155D2D6F4056753B12
S11300B03E025D593D780C5E6D667E306D79335B32
S11300C03E673D15374F0E0403020105060708007D
S11300D011241FBECFEFD8E0DEBFCDBF11E0A0E0FA
S11300E0B1E0ECEDFEE102C005900D92AC37B10732
S11300F0D9F721E0ACE7B1E001C01D92AF39B207F6
S1130100E1F70E94980B0C946C0F0C940000809102
S11301108001833049F128F4813049F08230A9F01C
S113012058C08430C1F1853009F444C052C02091D4
S11301307C0130917D0120713071232B31F081E0FD
S11301408093810110928401089520917C01309163
S11301507D0128703870232B39F082E0809381016F
S11301601092840181E0089520917F0130E0322FC4
S11301702227330F330F246040917C0150917D017D
S113018024233523232B39F083E0809381011092BB
S1130190840181E0089520917C0130917D012270D9
S11301A03270232B39F084E0809381011092840112
S11301B081E0089520917C0130917D0122273172E4
S11301C0232B39F085E08093810181E080938401C1
S11301D0089520917C0130917D0136FF09C084305F
S11301E038F484E08093810181E080938401089550
S11301F027FF09C0833038F483E08093810181E0D4
S113020080938401089520FF09C0823048F482E07D
S11302108093810181E080938401089580E00895B2
S113022080E0089580918001833049F130F4813079
S113023009F44BC08230D1F156C0843089F0853046
S113024009F051C020917C0130917D012227317247
S1130250232B31F08093810181E080938401089500
S113026020917C0130917D0122273274232B39F0B7
S113027084E08093810181E080938401089520913A
S11302807F0130E0322F2227330F330F2068409153
S11302907C0150917D0124233523232B39F083E005
S11302A08093810181E080938401089520917C01F1
S11302B030917D0121703870232B39F082E08093D6
S11302C0810181E080938401089520917C01309123
S11302D07D0120713071232B31F081E08093810105
S11302E010928401089590917C0193FF09C083309A
S11302F038F082E0809381011092840181E00895B6
S113030092FF09C0843038F083E080938101109219
S1130310840181E0089591FF09C0853048F084E0AC
S1130320809381011092840181E0089580E0089512
S113033080E008958091860181110BC00E9487009E
S1130340811112C00E941201813081F480938601D0
S113035008950E941201811107C00E948700813014
S113036029F4109286010895813079F080917C01FE
S113037090917D018F799F77892B39F481E0809367
S113038086018093810110928401089580918001F7
S1130390833079F128F4813051F0823099F06EC0C5
S11303A0843009F444C0853009F45FC067C080918B
S11303B07C0190917D018F7E9F7E90937D0180933F
S11303C07C015CC020918601222319F080E098E032
S11303D002C088E098E0822B8095909520917C0162
S11303E030917D018223932390937D0180937C013E
S11303F045C080918601882319F020E034E002C0D2
S113040024E034E040E8849FC0011124822B932B24
S11304108095909520917C0130917D0182239323D6
S113042090937D0180937C0110927F0127C080917D
S11304308601882319F020E032E002C022E032E095
S113044090E090E4899F902D88271124822B932B90
S11304508095909520917C0130917D018223932396
S113046090937D0180937C0109C080917C019091DF
S11304707D019E7D90937D0180937C010E94AC0858
S11304800895809388010895CF93C82F0E946F0A1E
S1130490883019F48EE40E947F0A883121F48C2F6D
S11304A088600E947F0A883211F40E947B0ACF91EF
S11304B00895CF93C82F84600E94440200008C2FBB
S11304C08B7F0E94440280E18A95F1F700C0CF91AE
S11304D00895CF93C82F0E9444028C2F0E94590282
S11304E0CF910895CF93DF93982F907F20E1829F3F
S11304F0E0011124613049F4892F81600E9469026E
S11305008C2F81600E94690207C0892F0E946902B2
S11305108C2F8E7F0E946902DF91CF91089540E075
S113052060EA80E00E945F0A60E083E30E94720256
S113053000C000C0000060E082E30E94720200C0BC
S113054000C0000060E088E20E94720200C000C0A7
S1130550000060E08EE00E94720200C000C0000053
S113056060E081E00E94720200C000C0000060E010
S113057086E00E94720200C000C0000060E08CE0CF
S11305800E9472020895CF93DF9300D000D0CDB7BC
S1130590DEB790E8998390EC9A8394E99B8394ED79
S11305A09C83FE01E60FF11D918160E0890F0E949A
S11305B0720283E08A95F1F700000F900F900F907C
S11305C00F90DF91CF910895CF93DF93EC01888151
S11305D0882359F0219661E00E94720283E08A9593
S11305E0F1F7000089918111F6CFDF91CF91089541
S11305F0EF92FF920F931F93CF93DF93CDB7DEB7A4
S113060068970FB6F894DEBF0FBECDBF182F60E019
S113061080E40E94720288E0E0E0F1E0DE011196DD
S113062001900D928A95E1F788E0E8E0F1E0DE01BF
S1130630199601900D928A95E1F788E0E0E1F1E0E6
S1130640DE01519601900D928A95E1F71130A9F5DA
S11306508E010F5F1F4F7E0189E0E80EF11C61E0FF
S1130660F80181918F010E947202E016F106B9F738
S113067061E08FE00E94C30261E080E00E947202A8
S113068060E088E40E9472028E01075F1F4F7E01C2
S1130690F1E1EF0EF11C61E0F80181918F010E94FC
S11306A072020E151F05B9F760E08FE00E94C302C5
S11306B061E081E00E94720234C08E010F5F1F4F1F
S11306C07E01F9E0EF0EF11C61E0F80181918F01E8
S11306D00E947202E016F106B9F760E08FE00E9412
S11306E0C30261E080E00E94720260E088E40E943C
S11306F072028E010F5E1F4F7E01F9E1EF0EF11CB5
S113070061E0F80181918F010E947202E016F10606
S1130710B9F761E08FE00E94C30261E081E00E94CA
S1130720720268960FB6F894DEBF0FBECDBFDF919C
S1130730CF911F910F91FF90EF90089560E08FE0AB
S11307400E94C30288E191E00E94E40261E08FE02C
S11307500E94C30288E191E00E94E4020895E9E660
S1130760F0E0808182608083E89A8AB1837F8AB9CD
S11307705A9A87E0809382010E942D05E0E7F0E019
S11307808081826080830895E898E9E6F0E08081C2
S11307908D7F808308954C9911C04EB321E030E0E1
S11307A0082E02C0220F331F0A94E2F7242B2EBB1B
S11307B02091820121502093820113C04C9B11C0CF
S11307C04EB321E030E0082E02C0220F331F0A94FA
S11307D0E2F7209524232EBB2091820121502093FF
S11307E08201181619060CF4A2C08EB3E0917E01A2
S11307F091E09E0F90937E010E2E000CFF0BE859A2
S1130800FF4FE4918E1709F455C0809183018F5FE7
S11308108093830110927E011EBA109295010E946A
S1130820C40310928D01809185018F5F80938501AF
S113083087E08093820160E070E081E090E00E94B4
S1130840720260E070E080E090E00E94C3028AE1FE
S113085091E00E94E40261E070E080E090E00E9498
S1130860C30289E291E00E94E40280918301833013
S113087009F05DC080917C0190917D019B7F9093F4
S11308807D0180937C0187E0809382010E94C403F0
S1130890E0E7F0E080818D7F80831092830160E047
S11308A070E081E090E00E947202809180010E94D9
S11308B01308089586E0809382011EBA80917E0118
S11308C08235A9F560E070E081E090E00E94720258
S11308D060E070E080E090E00E94C30283E391E076
S11308E00E94E40280917F018F5F80937F010E94C8
S11308F0C40310927E0187E080938201E0E7F0E078
S113090080818D7F80831092950110928701809160
S11309107C0190917D01946090937D0180937C0192
S113092080918801811103C081E00E9441020895F1
S11309301F920F920FB60F9211242F933F934F9350
S11309405F936F937F938F939F93AF93BF93EF9333
S1130950FF9380918201082E000C990B0E94CB0317
S1130960FF91EF91BF91AF919F918F917F916F9183
S11309705F914F913F912F910F900FBE0F901F9059
S11309801895CF93DF93D82FC62F80E00E94750867
S11309908D2F8F700E9470088C2F0E94700881E048
S11309A00E947508DF91CF910895E82FF0E0EA5393
S11309B0FF4F84910E94C1040895CF9340E060E00A
S11309C080E00E94550860E089E00E94C10467E06D
S11309D08BE00E94C1046FE08AE00E94C10461E0E0
S11309E08CE00E94C104C0E0CF5F60E08C2F0E94C5
S11309F0D504C830C9F7CF91089520917C01309176
S1130A007D013323DCF0813069F4E2ECF0E06491A1
S1130A1084E00E94D504E3ECF0E0649183E00E945A
S1130A20D5040895E0ECF0E0649184E00E94D504DC
S1130A30E1ECF0E0649183E00E94D504089560E065
S1130A4083E00E94D50460E084E00E94D504089508
S1130A5087B18C6087B9219A0895E0EBF0E080813A
S1130A608083E1EBF0E0808187608083E0E7F0E061
S1130A708081816080831092B2008EEF8093B300F6
S1130A8008951F920F920FB60F9211242F933F9344
S1130A904F935F936F937F938F939F93AF93BF9382
S1130AA0EF93FF93809187018F5F809387018091FB
S1130AB087018F3F39F4809195018F5F8093950171
S1130AC01092870180919501873089F410929501E5
S1130AD0E0E7F0E080818D7F80830E94C40360E0C2
S1130AE081E00E947202809180010E941308FF91AC
S1130AF0EF91BF91AF919F918F917F916F915F9192
S1130B004F913F912F910F900FBE0F901F9018950A
S1130B101F920F920FB60F9211242F933F934F936E
S1130B205F936F937F938F939F93AF93BF93EF9351
S1130B30FF9380918D018F5F80938D01809185015A
S1130B40813041F480918D01843120F00E94AF0303
S1130B5010928501FF91EF91BF91AF919F918F9179
S1130B607F916F915F914F913F912F910F900FBEA5
S1130B700F901F901895E1E8F0E02081962F9C706B
S1130B80990F922B9083A0E8B0E09C91262F2370BC
S1130B90922B9C9390818770982B9083662359F0B5
S1130BA0EFE6F0E0808181608083E0E8F0E080811E
S1130BB0806880830BC088EE9DEF909389008093BA
S1130BC08800EFE6F0E080818260808310928500E7
S1130BD010928400089565E083E00E94BB05219A89
S1130BE01092890108951092850010928400109249
S1130BF0810010928000109289001092880008955C
S1130C0081E080938901E8E8F0E080819181892B7B
S1130C10E1F70E94F3051092850010928400599820
S1130C200895CF93C62F8091860181110CC00E9434
S1130C30FD0481E090918601911180E00E94F80208
S1130C40429A43980BC00E94FD0481E09091860172
S1130C50911180E00E94F8024298439A0E94EB05A9
S1130C608091960190919701843F914018F10E94E0
S1130C708B0716BC1092980110929701109296015E
S1130C808091860181110AC080918001853041F3F1
S1130C908F5F809380010E941308E2CF813001F7B7
S1130CA0809180018130E1F28150809380010E9423
S1130CB01308D6CF80919801803238F080E00E94EA
S1130CC09B0716BC10929801CBCF809180018C13A6
S1130CD0C7CF80918401809386010E94FD0481E046
S1130CE090918601911180E00E94F8020E94000612
S1130CF00E94C601CF9108951F920F920FB60F92D2
S1130D0011248F939F93EF93FF9380918601811118
S1130D1025C080918901813009F448C08091880000
S1130D2090918900883E910509F440C0E8E8F0E01C
S1130D3080819181019691838083809189018130A2
S1130D4069F48091880090918900892B39F0E8E852
S1130D50F0E0808191810197918380838091860165
S1130D60813071F580918901813071F08091880022
S1130D7090918900803A910539F0E8E8F0E08081AB
S1130D809181019691838083809189018130C1F49E
S1130D908091880090918900892B91F0E8E8F0E037
S1130DA0808191810197918380830AC08091890118
S1130DB0813031F48091880090918900892B39F633
S1130DC0FF91EF919F918F910F900FBE0F901F9005
S1130DD018951F920F920FB60F9211248F93809142
S1130DE08C018F5F80938C018F910F900FBE0F90B9
S1130DF01F9018951F920F920FB60F9211242F93E4
S1130E003F934F935F936F937F938F939F93AF938E
S1130E10BF93EF93FF932FEF86E791E0215080403B
S1130E209040E1F700C0000089B1827C51F019C004
S1130E302FEF89EF90E0215080409040E1F700C00F
S1130E40000089B1827CA1F789B1827CD1F70FC0FF
S1130E502FEF89EF90E0215080409040E1F700C0EF
S1130E60000089B1827CA1F389B1827CD1F381E055
S1130E7080939101499910C080917C0190917D01EA
S1130E80946090937D0180937C018091880181110D
S1130E9003C081E00E9441024E9910C080917C0100
S1130EA090917D01986090937D0180937C01809165
S1130EB08801811103C081E00E9441024F9910C052
S1130EC080917C0190917D01906190937D0180934C
S1130ED07C0180918801811103C081E00E9441025C
S1130EE060917C0185E00E94D50460917D0186E0DB
S1130EF00E94D504FF91EF91BF91AF919F918F9183
S1130F007F916F915F914F913F912F910F900FBE01
S1130F100F901F90189510927A00089584B58260FE
S1130F2084BD85B5856085BD8EEF87BD82E08093E5
S1130F306E0016BC0895EAE7F0E090819F6A908302
S1130F408F70806480937C00EBE7F0E080818360A5
S1130F5080830E948E070895823081F08330D1F01F
S1130F608130D9F480E00E949B07809178009091B1
S1130F7079009093970180939601089581E00E94EF
S1130F809B07809178009091790090939B018093C6
S1130F909A01089581E080939C0108951F920F9215
S1130FA00FB60F9211242F933F934F935F936F9338
S1130FB07F938F939F93AF93BF93EF93FF9380910E
S1130FC08801823019F481E00E94AC078091880185
S1130FD0833019F482E00E94AC07FF91EF91BF9136
S1130FE0AF919F918F917F916F915F914F913F91BD
S1130FF02F910F900FBE0F901F9018951F920F9274
S11310000FB60F9211248F9380919801803229F0AA
S1131010809198018F5F809398018F910F900FBEFC
S11310200F901F9018950F931F93CF93DF93CDB715
S1131030DEB7A8970FB6F894DEBF0FBECDBF182F4A
S113104080917C0190917D01992344F0E12FF0E09F
S1131050E654FF4F649181E00E94D504E8991AC0D8
S113106060E080E00E94C3021F921F938CE391E032
S11310709F938F938E010F5F1F4F1F930F930E94B7
S1131080820CC8010E94E4020F900F900F900F9001
S11310900F900F90A8960FB6F894DEBF0FBECDBF89
S11310A0DF91CF911F910F91089594B19C6294B9EF
S11310B02498282F217030E0220F331F2295329577
S11310C0307F3227207F32274370242B20656370C2
S11310D0660F660F262B2CBD81E08DBD2A9A0895DC
S11310E08EBD0DB407FEFDCF0895813011F42A9A08
S11310F008952A9808951F93CF93DF931F92CDB735
S1131100DEB719820E946F0A83E40E947F0ABE013F
S11311106F5F7F4F81E00E948D0A182F0E947B0A27
S1131120812F8F700F90DF91CF911F910895CF93EE
S1131130C82F0E946F0A883019F482E40E947F0A43
S1131140883121F48C2F0E947F0A04C0883211F464
S11311500E947B0ACF91089560917C0188E00E94EF
S1131160D50460917D0187E00E94D5040895CF9352
S11311708FE70E94970880E00E947B08C82F8F3079
S1131180B1F183FD09C080917C0190917D0194604F
S113119090937D0180937C01C2FD09C080917C0104
S11311A090917D01926090937D0180937C01C1FDBB
S11311B009C080917C0190917D01916090937D01A3
S11311C080937C01C0FD13C080917C0190917D01CE
S11311D09C01306830937D0120937C01209188012B
S11311E0243029F49F7790937D0180937C018FEBC9
S11311F00E9497088C2F0E947B08C82F8F3061F1C2
S113120083FD09C080917C0190917D01906490934D
S11312107D0180937C01C2FD09C080917C01909185
S11312207D01906290937D0180937C01C1FD09C092
S113123080917C0190917D01906190937D018093D8
S11312407C01C0FD09C080917C0190917D01986072
S113125090937D0180937C018FED0E9497088C2FE1
S11312600E947B08C82F8F3061F183FD09C08091F3
S11312707C0190917D01846090937D0180937C0139
S1131280C2FD09C080917C0190917D0182609093A0
S11312907D0180937C01C1FD09C080917C01909106
S11312A07D01816090937D0180937C01C0FD09C024
S11312B080917C0190917D01806890937D01809361
S11312C07C018FEE0E9497088C2F0E947B08C82F08
S11312D08F3061F183FD09C080917C0190917D0183
S11312E0806490937D0180937C01C2FD09C080914C
S11312F07C0190917D01806290937D0180937C01BB
S1131300C1FD09C080917C0190917D018061909321
S11313107D0180937C01C0FD09C080917C01909186
S11313207D01886090937D0180937C018FE00E9411
S113133097088C2F0E947B08D89A0E94AC08809151
S11313407C0190917D0192FF14C080917F018130D6
S113135081F00E94240B80917C0190917D019B7F00
S113136090937D0180937C01E0E7F0E080818260CE
S1131370808380917C0190917D019923E4F468E05D
S113138085E00E94D504E4ECF0E0649184E00E94DE
S1131390D504E5ECF0E0649183E00E94D504E6EC2A
S11313A0F0E0649182E00E94D504E1ECF0E0649105
S11313B081E00E94D50480917C0190917D019C0183
S11313C020763327232B09F44DC0809188018111A5
S11313D003C083E00E94410280918801823051F071
S11313E080918801813031F080917C0190917D0160
S11313F0992364F480917C0190917D018F7990937D
S11314007D0180937C010E94AC0819C085FF0AC04D
S11314104B9915C08F7D90937D0180937C010E9430
S11314203D0B0DC086FF0BC00E94400B80917C01D8
S113143090917D018F7B90937D0180937C018091BD
S11314408801811113C080917C0190917D019C01E0
S113145020763327232B51F4892B41F081E00E941D
S1131460410204C0209188012223B1F380E090E07E
S1131470CF9108951F920F920FB60F9211242F93BC
S11314803F934F935F936F937F938F939F93AF9308
S1131490BF93EF93FF93189B0E94B708FF91EF91BE
S11314A0BF91AF919F918F917F916F915F914F9178
S11314B03F912F910F900FBE0F901F90189588E4C5
S11314C08093B80041704093B90084E08093BC00DD
S11314D087B18F7C87B988B1806388B90895ECEBB4
S11314E0F0E0108284EA808380818823ECF7809185
S11314F0B900887F089584E98093BC00089580939F
S1131500BB0084E88093BC00ECEBF0E0808188238E
S1131510ECF78091B900887F089584E88093BC003B
S1131520ECEBF0E080818823ECF78091BB00089518
S113153060E085E00E94BB0510928C0180918C01D3
S1131540823048F04B9907C00E94F3051092850041
S11315501092840008950E942D0510928D018091AF
S11315608D018431E0F310928D0180919A01909164
S11315709B01853F914010F768E085E00E94D50407
S113158060E081E00E94720260E080E00E94C30299
S11315908DE491E00E94E40261E085E00E94C302D0
S11315A08DE591E00E94E40280919A0190919B0163
S11315B0843F9140C8F360E085E00E94D50460E078
S11315C081E00E947202809180010E941308809140
S11315D086010E94FD0481E090918601911180E0D2
S11315E00E94F80210928C01A9CF81E080938001BF
S11315F08093810110927D0110927C0110928401EC
S1131600109286011092980110928C01809392019D
S113161010929401109285011092890180938E0199
S113162080918B0110929301109291011092950177
S113163087E08093820110927E01109287011092BC
S1131640830110928D01089510927F0160E081E082
S11316500E94720260E080E00E94C30286E691E08C
S11316600E94E40261E080E00E94C30283E791E00B
S11316700E94E4020E94AF030895569A5E9808956A
S11316805E9A08952098289A8FE090E00E94970827
S1131690E8E6F0E0808181608083EBE6F0E0808121
S11316A081608083089553985B9AE9E6F0E0808135
S11316B084608083E99A10928C010895E9E6F0E051
S11316C08081837F8083E99808951F920F920FB6DB
S11316D00F9211242F933F934F935F936F937F93B4
S11316E08F939F93AF93BF93EF93FF930E94400B0D
S11316F010928C01FF91EF91BF91AF919F918F91C7
S11317007F916F915F914F913F912F910F900FBEF9
S11317100F901F90189560E085E00E94BB05109221
S11317208C0180918C018823E1F30E94F3050895D4
S11317300E9428050E94F50A80E00E949B070E94EF
S11317408F020E94420B0E943D0B0E94DD04559AB9
S11317505D98789410928801809180010E9413080A
S113176080918801823009F446C028F48823C1F3AB
S1131770813041F0C3C0833009F462C0843009F47D
S11317809AC0BCC00E948B0B0E949A018091810177
S11317909091800189132BC020917C0130917D01AF
S11317A0232B91F4813081F40E94C60180917C0145
S11317B090917D01992324F484E00E944102D0CFCA
S11317C080E00E944102CCCF809184018093860105
S11317D00E94FD0481E090918601911180E00E94B5
S11317E0F80283E00E9441020E94C601B9CF82E060
S11317F00E944102B5CF60918101809180010E94D5
S1131800110680917C0190917D01892B61F4809176
S11318108001813041F40E949E030E941F0580E0F4
S11318200E94410203C081E00E944102809188012C
S1131830882319F083E00E9441020E94C60190CFE0
S113184080E00E949B070E94400B0E94530B0E9461
S1131850980A0E945E0B80917C0190917D019923EE
S113186024F484E00E9441027BCF0E943D0B81E07E
S113187020917C0130917D01232B09F480E08111BA
S113188008C081E090918001913009F480E08823C0
S113189021F081E00E94410263CF60E083E00E9476
S11318A0D50460E084E00E94D5040E949E0380E099
S11318B00E94410255CF80917C0190917D01992332
S11318C00CF44ECF60E085E00E94D50460E084E033
S11318D00E94D50460E083E00E94D50460E082E0C9
S11318E00E94D504809180010E9413088091860192
S11318F00E94FD0483E00E94410232CF80E00E94F6
S113190041022ECFAEE0B0E0E8E8FCE00C94430FD7
S11319100D891E8986E08C831A8309838FEF9FE7E4
S11319209E838D83AE01475E5F4F6F89788DCE01B4
S113193001960E94A40CEF81F885E00FF11F10823C
S11319402E96E4E00C945F0FABE0B0E0EAEAFCE032
S11319500C94350F6C017B018A01FC0117821682FD
S1131960838181FFCCC1CE0101963C01F6019381B4
S1131970F70193FD859193FF81917F01882309F4F9
S1131980BAC1853239F493FD859193FF81917F012A
S1131990853229F4B60190E00E949B0EE7CF912C8A
S11319A0212C312CFFE1F315D8F08B3279F038F487
S11319B0803279F08332A1F4232D20611DC08D3251
S11319C061F0803369F4232D216016C0832D826079
S11319D0382EE32DE4603E2E2AC0F32DF8601DC09E
S11319E037FC2DC020ED280F2A3040F08E32B9F498
S11319F036FC81C1232D2064322E19C036FE06C068
S1131A008AE0989E200D1124922E11C0EAE02E9EA9
S1131A10200D1124222EF32DF0623F2E08C08C36A7
S1131A2021F4832D8068382E02C0883641F4F701F2
S1131A3093FD859193FF81917F018111B3CF982FFD
S1131A409F7D9554933028F40C5F1F4F9FE3998337
S1131A500DC0833631F0833771F0833509F059C0F6
S1131A6021C0F801808189830E5F1F4F88248394ED
S1131A70912C530113C02801F2E04F0E511CF801C0
S1131A80A080B18036FE03C0692D70E002C06FEF04
S1131A907FEFC5010E94900E4C018201F32DFF7768
S1131AA03F2E16C0280122E0420E511CF801A080EE
S1131AB0B18036FE03C0692D70E002C06FEF7FEF86
S1131AC0C5010E94850E4C01F32DF0683F2E820162
S1131AD033FC1BC0822D90E088169906B0F4B60141
S1131AE080E290E00E949B0E2A94F4CFF50137FC2B
S1131AF0859137FE81915F01B60190E00E949B0EB3
S1131B0021102A9421E0821A91088114910471F71A
S1131B10E8C0843611F0893641F5F80137FE07C074
S1131B2060817181828193810C5F1F4F08C0608145
S1131B307181072E000C880B990B0E5F1F4FF32D3C
S1131B40FF763F2E97FF09C090958095709561951B
S1131B507F4F8F4F9F4FF0683F2E2AE030E0A30164
S1131B600E94D70E882E861845C0853731F4232D60
S1131B702F7EB22E2AE030E025C0932D997FB92E16
S1131B808F36C1F018F4883579F0B5C0803719F074
S1131B90883721F0B0C0E92FE061BE2EB4FE0DC03D
S1131BA0FB2DF460BF2E09C034FE0AC0292F266025
S1131BB0B22E06C028E030E005C020E130E002C0CB
S1131BC020E132E0F801B7FE07C0608171818281B3
S1131BD093810C5F1F4F06C06081718180E090E0AB
S1131BE00E5F1F4FA3010E94D70E882E8618FB2D6F
S1131BF0FF773F2E36FE0DC0232D2E7FA22E891493
S1131C0058F434FE0BC032FC09C0832D8E7EA82EFE
S1131C1005C0B82CA32C03C0B82C01C0B92CA4FE59
S1131C200FC0FE01E80DF11D8081803321F49A2D4F
S1131C30997EA92E09C0A2FE06C0B394B39404C031
S1131C408A2D867809F0B394A3FC11C0A0FE06C0C7
S1131C50B21488F4280C922C9B180EC0B21460F4B1
S1131C60B60180E290E00E949B0EB394F7CFB214C9
S1131C7018F42B1802C0982C212CA4FE10C0B60115
S1131C8080E390E00E949B0EA2FE17C0A1FC03C05B
S1131C9088E790E002C088E590E0B6010CC08A2D88
S1131CA0867859F0A1FE02C08BE201C080E2A7FC55
S1131CB08DE2B60190E00E949B0E891438F4B601BF
S1131CC080E390E00E949B0E9A94F7CF8A94F301EC
S1131CD0E80DF11D8081B60190E00E949B0E8110F9
S1131CE0F5CF222009F442CEB60180E290E00E94B2
S1131CF09B0E2A94F6CFF6018681978102C08FEF5E
S1131D009FEF2B96E2E10C94510FFC01059061507A
S1131D1070400110D8F7809590958E0F9F1F0895FD
S1131D20FC016150704001900110D8F780959095A6
S1131D308E0F9F1F08950F931F93CF93DF93FB0183
S1131D40238121FD03C08FEF9FEF2CC022FF16C01B
S1131D5046815781248135814217530744F4A08179
S1131D60B1819D012F5F3F4F318320838C93268166
S1131D7037812F5F3F4F3783268314C08B01EC01DB
S1131D80FB010084F185E02D0995892BE1F6D8014A
S1131D9016968D919C911797019617969C938E9306
S1131DA01697CE01DF91CF911F910F910895FA01FB
S1131DB0AA27283051F1203181F1E8946F936E7F86
S1131DC06E5F7F4F8F4F9F4FAF4FB1E03ED0B4E077
S1131DD03CD0670F781F891F9A1FA11D680F791FB8
S1131DE08A1F911DA11D6A0F711D811D911DA11DC9
S1131DF020D009F468943F912AE0269F11243019D9
S1131E00305D3193DEF6CF010895462F4770405D73
S1131E104193B3E00FD0C9F7F6CF462F4F70405D22
S1131E204A3318F0495D31FD4052419302D0A9F77D
S1131E30EACFB4E0A6959795879577956795BA9577
S1131E40C9F700976105710508959B01AC010A2E3D
S1131E5006945795479537952795BA95C9F7620F14
S1131E60731F841F951FA01D08952F923F924F92B8
S1131E705F926F927F928F929F92AF92BF92CF9216
S1131E80DF92EF92FF920F931F93CF93DF93CDB71F
S1131E90DEB7CA1BDB0B0FB6F894DEBF0FBECDBF97
S1131EA009942A88398848885F846E847D848C8468
S1131EB09B84AA84B984C884DF80EE80FD800C8171
S1131EC01B81AA81B981CE0FD11D0FB6F894DEBF54
S10F1ED00FBECDBFED010895F894FFCFC4
S1131EDC0E0E0E0E0E0E0E0E0000000000040E1F51
S1131EEC1F0E0400000000002000496E76616C692E
S1131EFC6420506C6561736500547279204167618C
S1131F0C696E005665726966696564004375727220
S1131F1C656E7420466C6F6F723A25640057656960
S1131F2C67687420436170616369747900457863F0
S1131F3C656564656400506C6561736520537769ED
S10F1F4C70650049442043617264000089
S9030000FC
