S01300006D6F746F726472697665722E7372656354
S11300000C9434000C943E000C943E000C943E007E
S11300100C943E000C943E000C943E000C943E0064
S11300200C943E000C9456000C943E000C943E003C
S11300300C943E000C943E000C943E000C943E0044
S11300400C943E000C943E000C943E000C943E0034
S11300500C943E000C943E000C943E000C943E0024
S11300600C943E000C943E0011241FBECFEFD8E048
S1130070DEBFCDBF0E9450000C9470000C940000B1
S1130080E0EBF0E0808183628083E1EBF0E080814B
S11300908160808381E0809370001092B4000895A1
S11300A088E08AB90E9440007894FFCF1F920F9293
S11300B00FB60F9211248F93EF93FF93E3EBF0E0CD
S11300C080818F5F808380818F3F11F41092B30011
S11300D0FF91EF918F910F900FBE0F901F90189585
S10700E0F894FFCFBE
S9030000FC
